{
  "contractName": "DeftyWrap",
  "abi": [
    {
      "constant": true,
      "inputs": [
        {
          "name": "interfaceId",
          "type": "bytes4"
        }
      ],
      "name": "supportsInterface",
      "outputs": [
        {
          "name": "",
          "type": "bool"
        }
      ],
      "payable": false,
      "stateMutability": "view",
      "type": "function",
      "signature": "0x01ffc9a7"
    },
    {
      "constant": true,
      "inputs": [],
      "name": "name",
      "outputs": [
        {
          "name": "",
          "type": "string"
        }
      ],
      "payable": false,
      "stateMutability": "view",
      "type": "function",
      "signature": "0x06fdde03"
    },
    {
      "constant": true,
      "inputs": [
        {
          "name": "tokenId",
          "type": "uint256"
        }
      ],
      "name": "getApproved",
      "outputs": [
        {
          "name": "",
          "type": "address"
        }
      ],
      "payable": false,
      "stateMutability": "view",
      "type": "function",
      "signature": "0x081812fc"
    },
    {
      "constant": false,
      "inputs": [
        {
          "name": "to",
          "type": "address"
        },
        {
          "name": "tokenId",
          "type": "uint256"
        }
      ],
      "name": "approve",
      "outputs": [],
      "payable": false,
      "stateMutability": "nonpayable",
      "type": "function",
      "signature": "0x095ea7b3"
    },
    {
      "constant": true,
      "inputs": [],
      "name": "totalSupply",
      "outputs": [
        {
          "name": "",
          "type": "uint256"
        }
      ],
      "payable": false,
      "stateMutability": "view",
      "type": "function",
      "signature": "0x18160ddd"
    },
    {
      "constant": false,
      "inputs": [
        {
          "name": "from",
          "type": "address"
        },
        {
          "name": "to",
          "type": "address"
        },
        {
          "name": "tokenId",
          "type": "uint256"
        }
      ],
      "name": "transferFrom",
      "outputs": [],
      "payable": false,
      "stateMutability": "nonpayable",
      "type": "function",
      "signature": "0x23b872dd"
    },
    {
      "constant": true,
      "inputs": [
        {
          "name": "owner",
          "type": "address"
        },
        {
          "name": "index",
          "type": "uint256"
        }
      ],
      "name": "tokenOfOwnerByIndex",
      "outputs": [
        {
          "name": "",
          "type": "uint256"
        }
      ],
      "payable": false,
      "stateMutability": "view",
      "type": "function",
      "signature": "0x2f745c59"
    },
    {
      "constant": false,
      "inputs": [
        {
          "name": "from",
          "type": "address"
        },
        {
          "name": "to",
          "type": "address"
        },
        {
          "name": "tokenId",
          "type": "uint256"
        }
      ],
      "name": "safeTransferFrom",
      "outputs": [],
      "payable": false,
      "stateMutability": "nonpayable",
      "type": "function",
      "signature": "0x42842e0e"
    },
    {
      "constant": true,
      "inputs": [
        {
          "name": "index",
          "type": "uint256"
        }
      ],
      "name": "tokenByIndex",
      "outputs": [
        {
          "name": "",
          "type": "uint256"
        }
      ],
      "payable": false,
      "stateMutability": "view",
      "type": "function",
      "signature": "0x4f6ccce7"
    },
    {
      "constant": true,
      "inputs": [
        {
          "name": "tokenId",
          "type": "uint256"
        }
      ],
      "name": "ownerOf",
      "outputs": [
        {
          "name": "",
          "type": "address"
        }
      ],
      "payable": false,
      "stateMutability": "view",
      "type": "function",
      "signature": "0x6352211e"
    },
    {
      "constant": true,
      "inputs": [
        {
          "name": "",
          "type": "bytes32"
        }
      ],
      "name": "proofRegistery",
      "outputs": [
        {
          "name": "cdpId",
          "type": "bytes32"
        },
        {
          "name": "tokenId",
          "type": "uint256"
        },
        {
          "name": "previousOwner",
          "type": "address"
        },
        {
          "name": "state",
          "type": "uint8"
        }
      ],
      "payable": false,
      "stateMutability": "view",
      "type": "function",
      "signature": "0x6da039c9"
    },
    {
      "constant": true,
      "inputs": [
        {
          "name": "owner",
          "type": "address"
        }
      ],
      "name": "balanceOf",
      "outputs": [
        {
          "name": "",
          "type": "uint256"
        }
      ],
      "payable": false,
      "stateMutability": "view",
      "type": "function",
      "signature": "0x70a08231"
    },
    {
      "constant": false,
      "inputs": [],
      "name": "renounceOwnership",
      "outputs": [],
      "payable": false,
      "stateMutability": "nonpayable",
      "type": "function",
      "signature": "0x715018a6"
    },
    {
      "constant": true,
      "inputs": [],
      "name": "owner",
      "outputs": [
        {
          "name": "",
          "type": "address"
        }
      ],
      "payable": false,
      "stateMutability": "view",
      "type": "function",
      "signature": "0x8da5cb5b"
    },
    {
      "constant": true,
      "inputs": [],
      "name": "isOwner",
      "outputs": [
        {
          "name": "",
          "type": "bool"
        }
      ],
      "payable": false,
      "stateMutability": "view",
      "type": "function",
      "signature": "0x8f32d59b"
    },
    {
      "constant": true,
      "inputs": [],
      "name": "symbol",
      "outputs": [
        {
          "name": "",
          "type": "string"
        }
      ],
      "payable": false,
      "stateMutability": "view",
      "type": "function",
      "signature": "0x95d89b41"
    },
    {
      "constant": false,
      "inputs": [
        {
          "name": "to",
          "type": "address"
        },
        {
          "name": "approved",
          "type": "bool"
        }
      ],
      "name": "setApprovalForAll",
      "outputs": [],
      "payable": false,
      "stateMutability": "nonpayable",
      "type": "function",
      "signature": "0xa22cb465"
    },
    {
      "constant": false,
      "inputs": [
        {
          "name": "from",
          "type": "address"
        },
        {
          "name": "to",
          "type": "address"
        },
        {
          "name": "tokenId",
          "type": "uint256"
        },
        {
          "name": "_data",
          "type": "bytes"
        }
      ],
      "name": "safeTransferFrom",
      "outputs": [],
      "payable": false,
      "stateMutability": "nonpayable",
      "type": "function",
      "signature": "0xb88d4fde"
    },
    {
      "constant": true,
      "inputs": [
        {
          "name": "tokenId",
          "type": "uint256"
        }
      ],
      "name": "tokenURI",
      "outputs": [
        {
          "name": "",
          "type": "string"
        }
      ],
      "payable": false,
      "stateMutability": "view",
      "type": "function",
      "signature": "0xc87b56dd"
    },
    {
      "constant": true,
      "inputs": [
        {
          "name": "",
          "type": "uint256"
        }
      ],
      "name": "tokenIdToCdpId",
      "outputs": [
        {
          "name": "",
          "type": "bytes32"
        }
      ],
      "payable": false,
      "stateMutability": "view",
      "type": "function",
      "signature": "0xd65c7582"
    },
    {
      "constant": true,
      "inputs": [],
      "name": "cdpAddress",
      "outputs": [
        {
          "name": "",
          "type": "address"
        }
      ],
      "payable": false,
      "stateMutability": "view",
      "type": "function",
      "signature": "0xe3d08d98"
    },
    {
      "constant": true,
      "inputs": [
        {
          "name": "owner",
          "type": "address"
        },
        {
          "name": "operator",
          "type": "address"
        }
      ],
      "name": "isApprovedForAll",
      "outputs": [
        {
          "name": "",
          "type": "bool"
        }
      ],
      "payable": false,
      "stateMutability": "view",
      "type": "function",
      "signature": "0xe985e9c5"
    },
    {
      "constant": false,
      "inputs": [
        {
          "name": "newOwner",
          "type": "address"
        }
      ],
      "name": "transferOwnership",
      "outputs": [],
      "payable": false,
      "stateMutability": "nonpayable",
      "type": "function",
      "signature": "0xf2fde38b"
    },
    {
      "inputs": [
        {
          "name": "_cdpAddress",
          "type": "address"
        }
      ],
      "payable": false,
      "stateMutability": "nonpayable",
      "type": "constructor",
      "signature": "constructor"
    },
    {
      "anonymous": false,
      "inputs": [
        {
          "indexed": false,
          "name": "sender",
          "type": "address"
        },
        {
          "indexed": false,
          "name": "cdpId",
          "type": "bytes32"
        },
        {
          "indexed": false,
          "name": "state",
          "type": "uint8"
        }
      ],
      "name": "Proved",
      "type": "event",
      "signature": "0xde68e8fb4a0d0fe78d961a290701a337c26e57c7e5d112ff157df58bced5cedd"
    },
    {
      "anonymous": false,
      "inputs": [
        {
          "indexed": false,
          "name": "sender",
          "type": "address"
        },
        {
          "indexed": false,
          "name": "cdpId",
          "type": "bytes32"
        },
        {
          "indexed": false,
          "name": "tokenId",
          "type": "uint256"
        }
      ],
      "name": "Wrapped",
      "type": "event",
      "signature": "0xf3696bf22477a6cf61e4692b216e2b7ddc6ab3428b84ed080bce454958bb831a"
    },
    {
      "anonymous": false,
      "inputs": [
        {
          "indexed": false,
          "name": "sender",
          "type": "address"
        },
        {
          "indexed": false,
          "name": "cdpId",
          "type": "bytes32"
        },
        {
          "indexed": false,
          "name": "tokenId",
          "type": "uint256"
        }
      ],
      "name": "Unwrapped",
      "type": "event",
      "signature": "0xa60234374090460a38b4de14e1750b399877d0637b555b04c0794778bfb35164"
    },
    {
      "anonymous": false,
      "inputs": [
        {
          "indexed": true,
          "name": "from",
          "type": "address"
        },
        {
          "indexed": true,
          "name": "to",
          "type": "address"
        },
        {
          "indexed": true,
          "name": "tokenId",
          "type": "uint256"
        }
      ],
      "name": "Transfer",
      "type": "event",
      "signature": "0xddf252ad1be2c89b69c2b068fc378daa952ba7f163c4a11628f55a4df523b3ef"
    },
    {
      "anonymous": false,
      "inputs": [
        {
          "indexed": true,
          "name": "owner",
          "type": "address"
        },
        {
          "indexed": true,
          "name": "approved",
          "type": "address"
        },
        {
          "indexed": true,
          "name": "tokenId",
          "type": "uint256"
        }
      ],
      "name": "Approval",
      "type": "event",
      "signature": "0x8c5be1e5ebec7d5bd14f71427d1e84f3dd0314c0f7b2291e5b200ac8c7c3b925"
    },
    {
      "anonymous": false,
      "inputs": [
        {
          "indexed": true,
          "name": "owner",
          "type": "address"
        },
        {
          "indexed": true,
          "name": "operator",
          "type": "address"
        },
        {
          "indexed": false,
          "name": "approved",
          "type": "bool"
        }
      ],
      "name": "ApprovalForAll",
      "type": "event",
      "signature": "0x17307eab39ab6107e8899845ad3d59bd9653f200f220920489ca2b5937696c31"
    },
    {
      "anonymous": false,
      "inputs": [
        {
          "indexed": true,
          "name": "previousOwner",
          "type": "address"
        },
        {
          "indexed": true,
          "name": "newOwner",
          "type": "address"
        }
      ],
      "name": "OwnershipTransferred",
      "type": "event",
      "signature": "0x8be0079c531659141344cd1fd0a4f28419497f9722a3daafe3b4186f6b6457e0"
    },
    {
      "constant": false,
      "inputs": [
        {
          "name": "_cdpAddress",
          "type": "address"
        }
      ],
      "name": "setCdpAddress",
      "outputs": [],
      "payable": false,
      "stateMutability": "nonpayable",
      "type": "function",
      "signature": "0x9bca8b6e"
    },
    {
      "constant": false,
      "inputs": [
        {
          "name": "_cdpId",
          "type": "bytes32"
        }
      ],
      "name": "proveOwnership",
      "outputs": [],
      "payable": false,
      "stateMutability": "nonpayable",
      "type": "function",
      "signature": "0xd2491dc9"
    },
    {
      "constant": false,
      "inputs": [
        {
          "name": "_cdpId",
          "type": "bytes32"
        }
      ],
      "name": "wrap",
      "outputs": [
        {
          "name": "_deftyTokenId",
          "type": "uint256"
        }
      ],
      "payable": false,
      "stateMutability": "nonpayable",
      "type": "function",
      "signature": "0x5f029ebe"
    },
    {
      "constant": false,
      "inputs": [
        {
          "name": "_deftyTokenId",
          "type": "uint256"
        }
      ],
      "name": "unwrap",
      "outputs": [
        {
          "name": "",
          "type": "bool"
        }
      ],
      "payable": false,
      "stateMutability": "nonpayable",
      "type": "function",
      "signature": "0xde0e9a3e"
    }
  ],
  "bytecode": "0x60806040523480156200001157600080fd5b50604051602080620036fc833981018060405260208110156200003357600080fd5b81019080805190602001909291905050506040805190810160405280600a81526020017f4465667479546f6b656e000000000000000000000000000000000000000000008152506040805190810160405280600381526020017f44545900000000000000000000000000000000000000000000000000000000008152508181336000806101000a81548173ffffffffffffffffffffffffffffffffffffffff021916908373ffffffffffffffffffffffffffffffffffffffff1602179055506000809054906101000a900473ffffffffffffffffffffffffffffffffffffffff1673ffffffffffffffffffffffffffffffffffffffff16600073ffffffffffffffffffffffffffffffffffffffff167f8be0079c531659141344cd1fd0a4f28419497f9722a3daafe3b4186f6b6457e060405160405180910390a3620001ab6301ffc9a77c010000000000000000000000000000000000000000000000000000000002620002b9640100000000026401000000009004565b620001e86380ac58cd7c010000000000000000000000000000000000000000000000000000000002620002b9640100000000026401000000009004565b6200022563780e9d637c010000000000000000000000000000000000000000000000000000000002620002b9640100000000026401000000009004565b81600a90805190602001906200023d929190620004a0565b5080600b908051906020019062000256929190620004a0565b5062000294635b5e139f7c010000000000000000000000000000000000000000000000000000000002620002b9640100000000026401000000009004565b50505050620002b28162000377640100000000026401000000009004565b506200054f565b63ffffffff7c010000000000000000000000000000000000000000000000000000000002817bffffffffffffffffffffffffffffffffffffffffffffffffffffffff1916141515156200030b57600080fd5b6001806000837bffffffffffffffffffffffffffffffffffffffffffffffffffffffff19167bffffffffffffffffffffffffffffffffffffffffffffffffffffffff1916815260200190815260200160002060006101000a81548160ff02191690831515021790555050565b6200039062000477640100000000026401000000009004565b73ffffffffffffffffffffffffffffffffffffffff163373ffffffffffffffffffffffffffffffffffffffff1614151562000433576040517f08c379a000000000000000000000000000000000000000000000000000000000815260040180806020018281038252600c8152602001807f556e617574686f7269736564000000000000000000000000000000000000000081525060200191505060405180910390fd5b80600e60006101000a81548173ffffffffffffffffffffffffffffffffffffffff021916908373ffffffffffffffffffffffffffffffffffffffff16021790555050565b60008060009054906101000a900473ffffffffffffffffffffffffffffffffffffffff16905090565b828054600181600116156101000203166002900490600052602060002090601f016020900481019282601f10620004e357805160ff191683800117855562000514565b8280016001018555821562000514579182015b8281111562000513578251825591602001919060010190620004f6565b5b50905062000523919062000527565b5090565b6200054c91905b80821115620005485760008160009055506001016200052e565b5090565b90565b61319d806200055f6000396000f3fe60806040526004361061015f576000357c0100000000000000000000000000000000000000000000000000000000900463ffffffff16806301ffc9a71461016457806306fdde03146101d6578063081812fc14610266578063095ea7b3146102e157806318160ddd1461033c57806323b872dd146103675780632f745c59146103e257806342842e0e146104515780634f6ccce7146104cc5780635f029ebe1461051b5780636352211e1461056a5780636da039c9146105e557806370a0823114610683578063715018a6146106e85780638da5cb5b146106ff5780638f32d59b1461075657806395d89b41146107855780639bca8b6e14610815578063a22cb46514610866578063b88d4fde146108c3578063c87b56dd146109d5578063d2491dc914610a89578063d65c758214610ac4578063de0e9a3e14610b13578063e3d08d9814610b66578063e985e9c514610bbd578063f2fde38b14610c46575b600080fd5b34801561017057600080fd5b506101bc6004803603602081101561018757600080fd5b8101908080357bffffffffffffffffffffffffffffffffffffffffffffffffffffffff19169060200190929190505050610c97565b604051808215151515815260200191505060405180910390f35b3480156101e257600080fd5b506101eb610cff565b6040518080602001828103825283818151815260200191508051906020019080838360005b8381101561022b578082015181840152602081019050610210565b50505050905090810190601f1680156102585780820380516001836020036101000a031916815260200191505b509250505060405180910390f35b34801561027257600080fd5b5061029f6004803603602081101561028957600080fd5b8101908080359060200190929190505050610da1565b604051808273ffffffffffffffffffffffffffffffffffffffff1673ffffffffffffffffffffffffffffffffffffffff16815260200191505060405180910390f35b3480156102ed57600080fd5b5061033a6004803603604081101561030457600080fd5b81019080803573ffffffffffffffffffffffffffffffffffffffff16906020019092919080359060200190929190505050610df2565b005b34801561034857600080fd5b50610351610f37565b6040518082815260200191505060405180910390f35b34801561037357600080fd5b506103e06004803603606081101561038a57600080fd5b81019080803573ffffffffffffffffffffffffffffffffffffffff169060200190929190803573ffffffffffffffffffffffffffffffffffffffff16906020019092919080359060200190929190505050610f44565b005b3480156103ee57600080fd5b5061043b6004803603604081101561040557600080fd5b81019080803573ffffffffffffffffffffffffffffffffffffffff16906020019092919080359060200190929190505050610f69565b6040518082815260200191505060405180910390f35b34801561045d57600080fd5b506104ca6004803603606081101561047457600080fd5b81019080803573ffffffffffffffffffffffffffffffffffffffff169060200190929190803573ffffffffffffffffffffffffffffffffffffffff16906020019092919080359060200190929190505050610fe0565b005b3480156104d857600080fd5b50610505600480360360208110156104ef57600080fd5b8101908080359060200190929190505050611001565b6040518082815260200191505060405180910390f35b34801561052757600080fd5b506105546004803603602081101561053e57600080fd5b8101908080359060200190929190505050611039565b6040518082815260200191505060405180910390f35b34801561057657600080fd5b506105a36004803603602081101561058d57600080fd5b81019080803590602001909291905050506114a2565b604051808273ffffffffffffffffffffffffffffffffffffffff1673ffffffffffffffffffffffffffffffffffffffff16815260200191505060405180910390f35b3480156105f157600080fd5b5061061e6004803603602081101561060857600080fd5b8101908080359060200190929190505050611520565b604051808581526020018481526020018373ffffffffffffffffffffffffffffffffffffffff1673ffffffffffffffffffffffffffffffffffffffff16815260200182600381111561066c57fe5b60ff16815260200194505050505060405180910390f35b34801561068f57600080fd5b506106d2600480360360208110156106a657600080fd5b81019080803573ffffffffffffffffffffffffffffffffffffffff16906020019092919050505061157d565b6040518082815260200191505060405180910390f35b3480156106f457600080fd5b506106fd611601565b005b34801561070b57600080fd5b506107146116d3565b604051808273ffffffffffffffffffffffffffffffffffffffff1673ffffffffffffffffffffffffffffffffffffffff16815260200191505060405180910390f35b34801561076257600080fd5b5061076b6116fc565b604051808215151515815260200191505060405180910390f35b34801561079157600080fd5b5061079a611753565b6040518080602001828103825283818151815260200191508051906020019080838360005b838110156107da5780820151818401526020810190506107bf565b50505050905090810190601f1680156108075780820380516001836020036101000a031916815260200191505b509250505060405180910390f35b34801561082157600080fd5b506108646004803603602081101561083857600080fd5b81019080803573ffffffffffffffffffffffffffffffffffffffff1690602001909291905050506117f5565b005b34801561087257600080fd5b506108c16004803603604081101561088957600080fd5b81019080803573ffffffffffffffffffffffffffffffffffffffff1690602001909291908035151590602001909291905050506118e3565b005b3480156108cf57600080fd5b506109d3600480360360808110156108e657600080fd5b81019080803573ffffffffffffffffffffffffffffffffffffffff169060200190929190803573ffffffffffffffffffffffffffffffffffffffff169060200190929190803590602001909291908035906020019064010000000081111561094d57600080fd5b82018360208201111561095f57600080fd5b8035906020019184600183028401116401000000008311171561098157600080fd5b91908080601f016020809104026020016040519081016040528093929190818152602001838380828437600081840152601f19601f820116905080830192505050505050509192919290505050611a1f565b005b3480156109e157600080fd5b50610a0e600480360360208110156109f857600080fd5b8101908080359060200190929190505050611a47565b6040518080602001828103825283818151815260200191508051906020019080838360005b83811015610a4e578082015181840152602081019050610a33565b50505050905090810190601f168015610a7b5780820380516001836020036101000a031916815260200191505b509250505060405180910390f35b348015610a9557600080fd5b50610ac260048036036020811015610aac57600080fd5b8101908080359060200190929190505050611b10565b005b348015610ad057600080fd5b50610afd60048036036020811015610ae757600080fd5b8101908080359060200190929190505050611df7565b6040518082815260200191505060405180910390f35b348015610b1f57600080fd5b50610b4c60048036036020811015610b3657600080fd5b8101908080359060200190929190505050611e0f565b604051808215151515815260200191505060405180910390f35b348015610b7257600080fd5b50610b7b6120aa565b604051808273ffffffffffffffffffffffffffffffffffffffff1673ffffffffffffffffffffffffffffffffffffffff16815260200191505060405180910390f35b348015610bc957600080fd5b50610c2c60048036036040811015610be057600080fd5b81019080803573ffffffffffffffffffffffffffffffffffffffff169060200190929190803573ffffffffffffffffffffffffffffffffffffffff1690602001909291905050506120d0565b604051808215151515815260200191505060405180910390f35b348015610c5257600080fd5b50610c9560048036036020811015610c6957600080fd5b81019080803573ffffffffffffffffffffffffffffffffffffffff169060200190929190505050612164565b005b600060016000837bffffffffffffffffffffffffffffffffffffffffffffffffffffffff19167bffffffffffffffffffffffffffffffffffffffffffffffffffffffff1916815260200190815260200160002060009054906101000a900460ff169050919050565b6060600a8054600181600116156101000203166002900480601f016020809104026020016040519081016040528092919081815260200182805460018160011615610100020316600290048015610d975780601f10610d6c57610100808354040283529160200191610d97565b820191906000526020600020905b815481529060010190602001808311610d7a57829003601f168201915b5050505050905090565b6000610dac82612183565b1515610db757600080fd5b6003600083815260200190815260200160002060009054906101000a900473ffffffffffffffffffffffffffffffffffffffff169050919050565b6000610dfd826114a2565b90508073ffffffffffffffffffffffffffffffffffffffff168373ffffffffffffffffffffffffffffffffffffffff1614151515610e3a57600080fd5b8073ffffffffffffffffffffffffffffffffffffffff163373ffffffffffffffffffffffffffffffffffffffff161480610e7a5750610e7981336120d0565b5b1515610e8557600080fd5b826003600084815260200190815260200160002060006101000a81548173ffffffffffffffffffffffffffffffffffffffff021916908373ffffffffffffffffffffffffffffffffffffffff160217905550818373ffffffffffffffffffffffffffffffffffffffff168273ffffffffffffffffffffffffffffffffffffffff167f8c5be1e5ebec7d5bd14f71427d1e84f3dd0314c0f7b2291e5b200ac8c7c3b92560405160405180910390a4505050565b6000600880549050905090565b610f4e33826121f5565b1515610f5957600080fd5b610f6483838361228a565b505050565b6000610f748361157d565b82101515610f8157600080fd5b600660008473ffffffffffffffffffffffffffffffffffffffff1673ffffffffffffffffffffffffffffffffffffffff16815260200190815260200160002082815481101515610fcd57fe5b9060005260206000200154905092915050565b610ffc8383836020604051908101604052806000815250611a1f565b505050565b600061100b610f37565b8210151561101857600080fd5b60088281548110151561102757fe5b90600052602060002001549050919050565b600080600e60009054906101000a900473ffffffffffffffffffffffffffffffffffffffff1690506000600381111561106e57fe5b600f600085815260200190815260200160002060020160149054906101000a900460ff16600381111561109d57fe5b14151515611139576040517f08c379a00000000000000000000000000000000000000000000000000000000081526004018080602001828103825260308152602001807f596f75206d7573742070726f76654f776e6572736869702829206f662043445081526020017f206265666f7265207772617070696e670000000000000000000000000000000081525060400191505060405180910390fd5b3373ffffffffffffffffffffffffffffffffffffffff16600f600085815260200190815260200160002060020160009054906101000a900473ffffffffffffffffffffffffffffffffffffffff1673ffffffffffffffffffffffffffffffffffffffff16141515611238576040517f08c379a00000000000000000000000000000000000000000000000000000000081526004018080602001828103825260348152602001807f596f75206d757374206265207468652070726576696f75734f776e657220696e81526020017f206f7264657220746f207772617020612043445000000000000000000000000081525060400191505060405180910390fd5b3073ffffffffffffffffffffffffffffffffffffffff168173ffffffffffffffffffffffffffffffffffffffff1663de5f5517856040518263ffffffff167c01000000000000000000000000000000000000000000000000000000000281526004018082815260200191505060206040518083038186803b1580156112bc57600080fd5b505afa1580156112d0573d6000803e3d6000fd5b505050506040513d60208110156112e657600080fd5b810190808051906020019092919050505073ffffffffffffffffffffffffffffffffffffffff161415156113a8576040517f08c379a000000000000000000000000000000000000000000000000000000000815260040180806020018281038252603e8152602001807f596f75206d75737420676976652829207468652043445020746f20746869732081526020017f636f6e7472616374206265666f72652063616c6c696e6720777261702829000081525060400191505060405180910390fd5b6113b2600d6122ae565b91506113be33836122cf565b81600f6000858152602001908152602001600020600101819055506002600f600085815260200190815260200160002060020160146101000a81548160ff0219169083600381111561140c57fe5b02179055508260106000848152602001908152602001600020819055507ff3696bf22477a6cf61e4692b216e2b7ddc6ab3428b84ed080bce454958bb831a338484604051808473ffffffffffffffffffffffffffffffffffffffff1673ffffffffffffffffffffffffffffffffffffffff168152602001838152602001828152602001935050505060405180910390a150919050565b6000806002600084815260200190815260200160002060009054906101000a900473ffffffffffffffffffffffffffffffffffffffff169050600073ffffffffffffffffffffffffffffffffffffffff168173ffffffffffffffffffffffffffffffffffffffff161415151561151757600080fd5b80915050919050565b600f6020528060005260406000206000915090508060000154908060010154908060020160009054906101000a900473ffffffffffffffffffffffffffffffffffffffff16908060020160149054906101000a900460ff16905084565b60008073ffffffffffffffffffffffffffffffffffffffff168273ffffffffffffffffffffffffffffffffffffffff16141515156115ba57600080fd5b600460008373ffffffffffffffffffffffffffffffffffffffff1673ffffffffffffffffffffffffffffffffffffffff168152602001908152602001600020549050919050565b6116096116fc565b151561161457600080fd5b600073ffffffffffffffffffffffffffffffffffffffff166000809054906101000a900473ffffffffffffffffffffffffffffffffffffffff1673ffffffffffffffffffffffffffffffffffffffff167f8be0079c531659141344cd1fd0a4f28419497f9722a3daafe3b4186f6b6457e060405160405180910390a360008060006101000a81548173ffffffffffffffffffffffffffffffffffffffff021916908373ffffffffffffffffffffffffffffffffffffffff160217905550565b60008060009054906101000a900473ffffffffffffffffffffffffffffffffffffffff16905090565b60008060009054906101000a900473ffffffffffffffffffffffffffffffffffffffff1673ffffffffffffffffffffffffffffffffffffffff163373ffffffffffffffffffffffffffffffffffffffff1614905090565b6060600b8054600181600116156101000203166002900480601f0160208091040260200160405190810160405280929190818152602001828054600181600116156101000203166002900480156117eb5780601f106117c0576101008083540402835291602001916117eb565b820191906000526020600020905b8154815290600101906020018083116117ce57829003601f168201915b5050505050905090565b6117fd6116d3565b73ffffffffffffffffffffffffffffffffffffffff163373ffffffffffffffffffffffffffffffffffffffff1614151561189f576040517f08c379a000000000000000000000000000000000000000000000000000000000815260040180806020018281038252600c8152602001807f556e617574686f7269736564000000000000000000000000000000000000000081525060200191505060405180910390fd5b80600e60006101000a81548173ffffffffffffffffffffffffffffffffffffffff021916908373ffffffffffffffffffffffffffffffffffffffff16021790555050565b3373ffffffffffffffffffffffffffffffffffffffff168273ffffffffffffffffffffffffffffffffffffffff161415151561191e57600080fd5b80600560003373ffffffffffffffffffffffffffffffffffffffff1673ffffffffffffffffffffffffffffffffffffffff16815260200190815260200160002060008473ffffffffffffffffffffffffffffffffffffffff1673ffffffffffffffffffffffffffffffffffffffff16815260200190815260200160002060006101000a81548160ff0219169083151502179055508173ffffffffffffffffffffffffffffffffffffffff163373ffffffffffffffffffffffffffffffffffffffff167f17307eab39ab6107e8899845ad3d59bd9653f200f220920489ca2b5937696c3183604051808215151515815260200191505060405180910390a35050565b611a2a848484610f44565b611a36848484846122f0565b1515611a4157600080fd5b50505050565b6060611a5282612183565b1515611a5d57600080fd5b600c60008381526020019081526020016000208054600181600116156101000203166002900480601f016020809104026020016040519081016040528092919081815260200182805460018160011615610100020316600290048015611b045780601f10611ad957610100808354040283529160200191611b04565b820191906000526020600020905b815481529060010190602001808311611ae757829003601f168201915b50505050509050919050565b6000600e60009054906101000a900473ffffffffffffffffffffffffffffffffffffffff1690503373ffffffffffffffffffffffffffffffffffffffff168173ffffffffffffffffffffffffffffffffffffffff1663de5f5517846040518263ffffffff167c01000000000000000000000000000000000000000000000000000000000281526004018082815260200191505060206040518083038186803b158015611bbb57600080fd5b505afa158015611bcf573d6000803e3d6000fd5b505050506040513d6020811015611be557600080fd5b810190808051906020019092919050505073ffffffffffffffffffffffffffffffffffffffff16141515611ca7576040517f08c379a000000000000000000000000000000000000000000000000000000000815260040180806020018281038252602a8152602001807f546865206d73672e73656e646572206973206e6f7420746865206f776e65722081526020017f6f6620746865204344500000000000000000000000000000000000000000000081525060400191505060405180910390fd5b81600f60008481526020019081526020016000206000018190555033600f600084815260200190815260200160002060020160006101000a81548173ffffffffffffffffffffffffffffffffffffffff021916908373ffffffffffffffffffffffffffffffffffffffff1602179055506001600f600084815260200190815260200160002060020160146101000a81548160ff02191690836003811115611d4a57fe5b02179055507fde68e8fb4a0d0fe78d961a290701a337c26e57c7e5d112ff157df58bced5cedd3383600f600086815260200190815260200160002060020160149054906101000a900460ff16604051808473ffffffffffffffffffffffffffffffffffffffff1673ffffffffffffffffffffffffffffffffffffffff168152602001838152602001826003811115611dde57fe5b60ff168152602001935050505060405180910390a15050565b60106020528060005260406000206000915090505481565b600080600e60009054906101000a900473ffffffffffffffffffffffffffffffffffffffff169050600060106000858152602001908152602001600020549050611e58846114a2565b73ffffffffffffffffffffffffffffffffffffffff163373ffffffffffffffffffffffffffffffffffffffff16141515611f20576040517f08c379a00000000000000000000000000000000000000000000000000000000081526004018080602001828103825260258152602001807f4f6e6c792074686520445954206f776e65722063616e20756e7772617020746881526020017f65204e465400000000000000000000000000000000000000000000000000000081525060400191505060405180910390fd5b8173ffffffffffffffffffffffffffffffffffffffff1663baa8529c82336040518363ffffffff167c0100000000000000000000000000000000000000000000000000000000028152600401808381526020018273ffffffffffffffffffffffffffffffffffffffff1673ffffffffffffffffffffffffffffffffffffffff16815260200192505050600060405180830381600087803b158015611fc357600080fd5b505af1158015611fd7573d6000803e3d6000fd5b50505050611fe484612513565b60106000858152602001908152602001600020506003600f600083815260200190815260200160002060020160146101000a81548160ff0219169083600381111561202b57fe5b02179055507fa60234374090460a38b4de14e1750b399877d0637b555b04c0794778bfb35164338286604051808473ffffffffffffffffffffffffffffffffffffffff1673ffffffffffffffffffffffffffffffffffffffff168152602001838152602001828152602001935050505060405180910390a15050919050565b600e60009054906101000a900473ffffffffffffffffffffffffffffffffffffffff1681565b6000600560008473ffffffffffffffffffffffffffffffffffffffff1673ffffffffffffffffffffffffffffffffffffffff16815260200190815260200160002060008373ffffffffffffffffffffffffffffffffffffffff1673ffffffffffffffffffffffffffffffffffffffff16815260200190815260200160002060009054906101000a900460ff16905092915050565b61216c6116fc565b151561217757600080fd5b61218081612528565b50565b6000806002600084815260200190815260200160002060009054906101000a900473ffffffffffffffffffffffffffffffffffffffff169050600073ffffffffffffffffffffffffffffffffffffffff168173ffffffffffffffffffffffffffffffffffffffff161415915050919050565b600080612201836114a2565b90508073ffffffffffffffffffffffffffffffffffffffff168473ffffffffffffffffffffffffffffffffffffffff16148061227057508373ffffffffffffffffffffffffffffffffffffffff1661225884610da1565b73ffffffffffffffffffffffffffffffffffffffff16145b80612281575061228081856120d0565b5b91505092915050565b612295838383612622565b61229f8382612887565b6122a98282612a2b565b505050565b60006001826000016000828254019250508190555081600001549050919050565b6122d98282612af2565b6122e38282612a2b565b6122ec81612c8b565b5050565b60006123118473ffffffffffffffffffffffffffffffffffffffff16612cd7565b1515612320576001905061250b565b60008473ffffffffffffffffffffffffffffffffffffffff1663150b7a02338887876040518563ffffffff167c0100000000000000000000000000000000000000000000000000000000028152600401808573ffffffffffffffffffffffffffffffffffffffff1673ffffffffffffffffffffffffffffffffffffffff1681526020018473ffffffffffffffffffffffffffffffffffffffff1673ffffffffffffffffffffffffffffffffffffffff16815260200183815260200180602001828103825283818151815260200191508051906020019080838360005b838110156124175780820151818401526020810190506123fc565b50505050905090810190601f1680156124445780820380516001836020036101000a031916815260200191505b5095505050505050602060405180830381600087803b15801561246657600080fd5b505af115801561247a573d6000803e3d6000fd5b505050506040513d602081101561249057600080fd5b8101908080519060200190929190505050905063150b7a027c0100000000000000000000000000000000000000000000000000000000027bffffffffffffffffffffffffffffffffffffffffffffffffffffffff1916817bffffffffffffffffffffffffffffffffffffffffffffffffffffffff1916149150505b949350505050565b61252561251f826114a2565b82612cea565b50565b600073ffffffffffffffffffffffffffffffffffffffff168173ffffffffffffffffffffffffffffffffffffffff161415151561256457600080fd5b8073ffffffffffffffffffffffffffffffffffffffff166000809054906101000a900473ffffffffffffffffffffffffffffffffffffffff1673ffffffffffffffffffffffffffffffffffffffff167f8be0079c531659141344cd1fd0a4f28419497f9722a3daafe3b4186f6b6457e060405160405180910390a3806000806101000a81548173ffffffffffffffffffffffffffffffffffffffff021916908373ffffffffffffffffffffffffffffffffffffffff16021790555050565b8273ffffffffffffffffffffffffffffffffffffffff16612642826114a2565b73ffffffffffffffffffffffffffffffffffffffff1614151561266457600080fd5b600073ffffffffffffffffffffffffffffffffffffffff168273ffffffffffffffffffffffffffffffffffffffff16141515156126a057600080fd5b6126a981612d49565b6126fc6001600460008673ffffffffffffffffffffffffffffffffffffffff1673ffffffffffffffffffffffffffffffffffffffff16815260200190815260200160002054612e0990919063ffffffff16565b600460008573ffffffffffffffffffffffffffffffffffffffff1673ffffffffffffffffffffffffffffffffffffffff168152602001908152602001600020819055506127926001600460008573ffffffffffffffffffffffffffffffffffffffff1673ffffffffffffffffffffffffffffffffffffffff16815260200190815260200160002054612e2b90919063ffffffff16565b600460008473ffffffffffffffffffffffffffffffffffffffff1673ffffffffffffffffffffffffffffffffffffffff16815260200190815260200160002081905550816002600083815260200190815260200160002060006101000a81548173ffffffffffffffffffffffffffffffffffffffff021916908373ffffffffffffffffffffffffffffffffffffffff160217905550808273ffffffffffffffffffffffffffffffffffffffff168473ffffffffffffffffffffffffffffffffffffffff167fddf252ad1be2c89b69c2b068fc378daa952ba7f163c4a11628f55a4df523b3ef60405160405180910390a4505050565b60006128df6001600660008673ffffffffffffffffffffffffffffffffffffffff1673ffffffffffffffffffffffffffffffffffffffff16815260200190815260200160002080549050612e0990919063ffffffff16565b905060006007600084815260200190815260200160002054905081811415156129d2576000600660008673ffffffffffffffffffffffffffffffffffffffff1673ffffffffffffffffffffffffffffffffffffffff1681526020019081526020016000208381548110151561295057fe5b9060005260206000200154905080600660008773ffffffffffffffffffffffffffffffffffffffff1673ffffffffffffffffffffffffffffffffffffffff168152602001908152602001600020838154811015156129aa57fe5b9060005260206000200181905550816007600083815260200190815260200160002081905550505b600660008573ffffffffffffffffffffffffffffffffffffffff1673ffffffffffffffffffffffffffffffffffffffff168152602001908152602001600020805480919060019003612a2491906130d8565b5050505050565b600660008373ffffffffffffffffffffffffffffffffffffffff1673ffffffffffffffffffffffffffffffffffffffff168152602001908152602001600020805490506007600083815260200190815260200160002081905550600660008373ffffffffffffffffffffffffffffffffffffffff1673ffffffffffffffffffffffffffffffffffffffff1681526020019081526020016000208190806001815401808255809150509060018203906000526020600020016000909192909190915055505050565b600073ffffffffffffffffffffffffffffffffffffffff168273ffffffffffffffffffffffffffffffffffffffff1614151515612b2e57600080fd5b612b3781612183565b151515612b4357600080fd5b816002600083815260200190815260200160002060006101000a81548173ffffffffffffffffffffffffffffffffffffffff021916908373ffffffffffffffffffffffffffffffffffffffff160217905550612be86001600460008573ffffffffffffffffffffffffffffffffffffffff1673ffffffffffffffffffffffffffffffffffffffff16815260200190815260200160002054612e2b90919063ffffffff16565b600460008473ffffffffffffffffffffffffffffffffffffffff1673ffffffffffffffffffffffffffffffffffffffff16815260200190815260200160002081905550808273ffffffffffffffffffffffffffffffffffffffff16600073ffffffffffffffffffffffffffffffffffffffff167fddf252ad1be2c89b69c2b068fc378daa952ba7f163c4a11628f55a4df523b3ef60405160405180910390a45050565b6008805490506009600083815260200190815260200160002081905550600881908060018154018082558091505090600182039060005260206000200160009091929091909150555050565b600080823b905060008111915050919050565b612cf48282612e4c565b6000600c6000838152602001908152602001600020805460018160011615610100020316600290049050141515612d4557600c60008281526020019081526020016000206000612d449190613104565b5b5050565b600073ffffffffffffffffffffffffffffffffffffffff166003600083815260200190815260200160002060009054906101000a900473ffffffffffffffffffffffffffffffffffffffff1673ffffffffffffffffffffffffffffffffffffffff16141515612e065760006003600083815260200190815260200160002060006101000a81548173ffffffffffffffffffffffffffffffffffffffff021916908373ffffffffffffffffffffffffffffffffffffffff1602179055505b50565b6000828211151515612e1a57600080fd5b600082840390508091505092915050565b6000808284019050838110151515612e4257600080fd5b8091505092915050565b612e568282612e86565b612e608282612887565b60006007600083815260200190815260200160002081905550612e828161301a565b5050565b8173ffffffffffffffffffffffffffffffffffffffff16612ea6826114a2565b73ffffffffffffffffffffffffffffffffffffffff16141515612ec857600080fd5b612ed181612d49565b612f246001600460008573ffffffffffffffffffffffffffffffffffffffff1673ffffffffffffffffffffffffffffffffffffffff16815260200190815260200160002054612e0990919063ffffffff16565b600460008473ffffffffffffffffffffffffffffffffffffffff1673ffffffffffffffffffffffffffffffffffffffff1681526020019081526020016000208190555060006002600083815260200190815260200160002060006101000a81548173ffffffffffffffffffffffffffffffffffffffff021916908373ffffffffffffffffffffffffffffffffffffffff16021790555080600073ffffffffffffffffffffffffffffffffffffffff168373ffffffffffffffffffffffffffffffffffffffff167fddf252ad1be2c89b69c2b068fc378daa952ba7f163c4a11628f55a4df523b3ef60405160405180910390a45050565b60006130356001600880549050612e0990919063ffffffff16565b9050600060096000848152602001908152602001600020549050600060088381548110151561306057fe5b906000526020600020015490508060088381548110151561307d57fe5b906000526020600020018190555081600960008381526020019081526020016000208190555060088054809190600190036130b891906130d8565b506000600960008681526020019081526020016000208190555050505050565b8154818355818111156130ff578183600052602060002091820191016130fe919061314c565b5b505050565b50805460018160011615610100020316600290046000825580601f1061312a5750613149565b601f016020900490600052602060002090810190613148919061314c565b5b50565b61316e91905b8082111561316a576000816000905550600101613152565b5090565b9056fea165627a7a72305820c38cafdb42816ca6f07822261c079fc7686f49e1d034d5fe77203f9c6a68cff20029",
  "source": "pragma solidity ^0.5.0;\n\nimport 'openzeppelin-solidity/contracts/ownership/Ownable.sol';\nimport 'openzeppelin-solidity/contracts/drafts/Counter.sol';\nimport 'openzeppelin-solidity/contracts/token/ERC721/ERC721Full.sol';\nimport 'openzeppelin-solidity/contracts/token/ERC721/IERC721Metadata.sol';\nimport { ISaiTub as SaiTub } from './lib/sai/ITub.sol';\n\ncontract DeftyWrap is Ownable, IERC721Metadata, ERC721Full {\n\n  using Counter for Counter.Counter;\n  Counter.Counter private tokenId;\n\n  enum WrapState {\n    Undefined,\n    PendingTransfer,\n    Wrapped,\n    Unwrapped\n  }\n\n  struct ProofOfOwnership {\n    bytes32 cdpId;\n    uint256 tokenId;\n    address previousOwner;\n    WrapState state;\n  }\n\n  address public cdpAddress;\n  mapping(bytes32 => ProofOfOwnership) public proofRegistery;\n  mapping(uint256 => bytes32) public tokenIdToCdpId;\n\n  event Proved(address sender, bytes32 cdpId, WrapState state);\n  event Wrapped(address sender, bytes32 cdpId, uint256 tokenId);\n  event Unwrapped(address sender, bytes32 cdpId, uint256 tokenId);\n\n  constructor(address _cdpAddress)\n    Ownable()\n    ERC721Full('DeftyToken', 'DTY')\n    public\n  {\n    setCdpAddress(_cdpAddress);\n  }\n\n  function setCdpAddress(address _cdpAddress) public {\n    require(msg.sender == owner(), 'Unauthorised');\n    cdpAddress = _cdpAddress;\n  }\n\n  function proveOwnership(bytes32 _cdpId)\n    public\n  {\n    SaiTub untrustedMkr = SaiTub(cdpAddress);\n    require(untrustedMkr.lad(_cdpId) == msg.sender, 'The msg.sender is not the owner of the CDP');\n\n    proofRegistery[_cdpId].cdpId = _cdpId;\n    proofRegistery[_cdpId].previousOwner = msg.sender;\n    proofRegistery[_cdpId].state = WrapState.PendingTransfer;\n    emit Proved(msg.sender, _cdpId, proofRegistery[_cdpId].state);\n  }\n\n  function wrap(bytes32 _cdpId)\n    public\n    returns (uint256 _deftyTokenId)\n  {\n    SaiTub untrustedMkr = SaiTub(cdpAddress);\n    require(proofRegistery[_cdpId].state != WrapState.Undefined, 'You must proveOwnership() of CDP before wrapping');\n    require(proofRegistery[_cdpId].previousOwner == msg.sender, 'You must be the previousOwner in order to wrap a CDP');\n    require(untrustedMkr.lad(_cdpId) == address(this), 'You must give() the CDP to this contract before calling wrap()');\n\n     _deftyTokenId = tokenId.next();\n    _mint(msg.sender, _deftyTokenId);\n\n    proofRegistery[_cdpId].tokenId = _deftyTokenId;\n    proofRegistery[_cdpId].state = WrapState.Wrapped;\n\n    tokenIdToCdpId[_deftyTokenId] = _cdpId;\n    emit Wrapped(msg.sender, _cdpId, _deftyTokenId);\n  }\n\n  function unwrap(uint256 _deftyTokenId)\n    public\n    returns (bool)\n  {\n    SaiTub untrustedMkr = SaiTub(cdpAddress);\n    bytes32 _cdpId = tokenIdToCdpId[_deftyTokenId];\n\n    require(msg.sender == ownerOf(_deftyTokenId), 'Only the DYT owner can unwrap the NFT');\n    untrustedMkr.give(_cdpId, msg.sender); // When placed in a require get TypeError: No matching declaration found after argument-dependent lookup.\n\n    _burn(_deftyTokenId);\n    tokenIdToCdpId[_deftyTokenId];\n    proofRegistery[_cdpId].state = WrapState.Unwrapped;\n\n    emit Unwrapped(msg.sender, _cdpId, _deftyTokenId);\n  }\n}\n",
  "sourcePath": "/Users/vilsbole/Developer/defty/contracts/contracts/DeftyWrap.sol",
  "compiler": {
    "name": "solc",
    "version": "0.5.0+commit.1d4f565a.Emscripten.clang"
  },
  "schemaVersion": "3.0.1",
  "updatedAt": "2019-02-01T16:38:14.449Z",
  "devdoc": {
    "methods": {
      "approve(address,uint256)": {
        "details": "Approves another address to transfer the given token ID The zero address indicates there is no approved address. There can only be one approved address per token at a given time. Can only be called by the token owner or an approved operator.",
        "params": {
          "to": "address to be approved for the given token ID",
          "tokenId": "uint256 ID of the token to be approved"
        }
      },
      "balanceOf(address)": {
        "details": "Gets the balance of the specified address",
        "params": {
          "owner": "address to query the balance of"
        },
        "return": "uint256 representing the amount owned by the passed address"
      },
      "getApproved(uint256)": {
        "details": "Gets the approved address for a token ID, or zero if no address set Reverts if the token ID does not exist.",
        "params": {
          "tokenId": "uint256 ID of the token to query the approval of"
        },
        "return": "address currently approved for the given token ID"
      },
      "isApprovedForAll(address,address)": {
        "details": "Tells whether an operator is approved by a given owner",
        "params": {
          "operator": "operator address which you want to query the approval of",
          "owner": "owner address which you want to query the approval of"
        },
        "return": "bool whether the given operator is approved by the given owner"
      },
      "isOwner()": {
        "return": "true if `msg.sender` is the owner of the contract."
      },
      "name()": {
        "details": "Gets the token name",
        "return": "string representing the token name"
      },
      "owner()": {
        "return": "the address of the owner."
      },
      "ownerOf(uint256)": {
        "details": "Gets the owner of the specified token ID",
        "params": {
          "tokenId": "uint256 ID of the token to query the owner of"
        },
        "return": "owner address currently marked as the owner of the given token ID"
      },
      "renounceOwnership()": {
        "details": "Allows the current owner to relinquish control of the contract."
      },
      "safeTransferFrom(address,address,uint256)": {
        "details": "Safely transfers the ownership of a given token ID to another address If the target address is a contract, it must implement `onERC721Received`, which is called upon a safe transfer, and return the magic value `bytes4(keccak256(\"onERC721Received(address,address,uint256,bytes)\"))`; otherwise, the transfer is reverted.     * Requires the msg sender to be the owner, approved, or operator",
        "params": {
          "from": "current owner of the token",
          "to": "address to receive the ownership of the given token ID",
          "tokenId": "uint256 ID of the token to be transferred"
        }
      },
      "safeTransferFrom(address,address,uint256,bytes)": {
        "details": "Safely transfers the ownership of a given token ID to another address If the target address is a contract, it must implement `onERC721Received`, which is called upon a safe transfer, and return the magic value `bytes4(keccak256(\"onERC721Received(address,address,uint256,bytes)\"))`; otherwise, the transfer is reverted. Requires the msg sender to be the owner, approved, or operator",
        "params": {
          "_data": "bytes data to send along with a safe transfer check",
          "from": "current owner of the token",
          "to": "address to receive the ownership of the given token ID",
          "tokenId": "uint256 ID of the token to be transferred"
        }
      },
      "setApprovalForAll(address,bool)": {
        "details": "Sets or unsets the approval of a given operator An operator is allowed to transfer all tokens of the sender on their behalf",
        "params": {
          "approved": "representing the status of the approval to be set",
          "to": "operator address to set the approval"
        }
      },
      "supportsInterface(bytes4)": {
        "details": "implement supportsInterface(bytes4) using a lookup table"
      },
      "symbol()": {
        "details": "Gets the token symbol",
        "return": "string representing the token symbol"
      },
      "tokenByIndex(uint256)": {
        "details": "Gets the token ID at a given index of all the tokens in this contract Reverts if the index is greater or equal to the total number of tokens",
        "params": {
          "index": "uint256 representing the index to be accessed of the tokens list"
        },
        "return": "uint256 token ID at the given index of the tokens list"
      },
      "tokenOfOwnerByIndex(address,uint256)": {
        "details": "Gets the token ID at a given index of the tokens list of the requested owner",
        "params": {
          "index": "uint256 representing the index to be accessed of the requested tokens list",
          "owner": "address owning the tokens list to be accessed"
        },
        "return": "uint256 token ID at the given index of the tokens list owned by the requested address"
      },
      "tokenURI(uint256)": {
        "details": "Returns an URI for a given token ID Throws if the token ID does not exist. May return an empty string.",
        "params": {
          "tokenId": "uint256 ID of the token to query"
        }
      },
      "totalSupply()": {
        "details": "Gets the total amount of tokens stored by the contract",
        "return": "uint256 representing the total amount of tokens"
      },
      "transferFrom(address,address,uint256)": {
        "details": "Transfers the ownership of a given token ID to another address Usage of this method is discouraged, use `safeTransferFrom` whenever possible Requires the msg sender to be the owner, approved, or operator",
        "params": {
          "from": "current owner of the token",
          "to": "address to receive the ownership of the given token ID",
          "tokenId": "uint256 ID of the token to be transferred"
        }
      },
      "transferOwnership(address)": {
        "details": "Allows the current owner to transfer control of the contract to a newOwner.",
        "params": {
          "newOwner": "The address to transfer ownership to."
        }
      }
    }
  },
  "userdoc": {
    "methods": {
      "renounceOwnership()": {
        "notice": "Renouncing to ownership will leave the contract without an owner. It will not be possible to call the functions with the `onlyOwner` modifier anymore."
      }
    }
  }
}